:100000000C9463000C948B000C948B000C948B006C
:100010000C948B000C948B000C948B000C94390581
:100020000C948B000C948B000C948B000C948B0024
:100030000C948B000C948B000C948B000C948B0014
:100040000C94EF040C948B000C94BD040C94970456
:100050000C948B000C948B000C948B000C948B00F4
:100060000C948B000C948B0000000008000201002F
:100070000003040700000000000000000000000072
:10008000240027002A000000000023002600290089
:1000900000000000250028002B00040404040404D0
:1000A0000404020202020202030303030303010227
:1000B00004081020408001020408102001020408F6
:1000C00010205E054A0811241FBECFEFD8E0DEBF26
:1000D000CDBF22E0A4E3B1E001C01D92AE31B20772
:1000E000E1F711E0A0E0B1E0E6E4F6E102C005903E
:1000F0000D92A433B107D9F710E0C2E6D0E004C0F6
:100100002197FE010E941409C136D107C9F70E9448
:10011000E4050C94160B0C940000DC0170E0FB016C
:10012000E255FF4FE4911496EC93149750E0FA01D6
:10013000E255FF4FE4911596EC93159766567F4F65
:10014000FB018491E82FF0E0EE0FFF1FE057FF4F17
:100150008591949117969C938E931697FA01E65683
:10016000FF4FE491F0E0EE0FFF1FEA57FF4F85913C
:10017000949119969C938E931897FB016491E62FA6
:10018000F0E0EE0FFF1FE458FF4F859194911B960E
:100190009C938E931A9785E093E41D969C938E937F
:1001A0001C970895CF92DF92EF92FF920F931F93C7
:1001B000CF93DF936C017A018B01C0E0D0E0CE15C4
:1001C000DF0581F0D8016D918D01D601ED91FC9193
:1001D0000190F081E02DC6010995892B11F021963F
:1001E000EECF7E01C701DF91CF911F910F91FF905C
:1001F000EF90DF90CF900895089580E090E008950B
:10020000FC01538D448D252F30E0842F90E0821B1C
:10021000930B541710F0CF96089501970895FC01A1
:10022000918D828D981761F0828DDF01A80FB11D2D
:100230005D968C91928D9F5F9F73928F90E0089551
:100240008FEF9FEF0895FC01918D828D981731F00B
:10025000828DE80FF11D858D90E008958FEF9FEF5F
:100260000895FC01918D228D892F90E0805C9F4F35
:10027000821B91098F739927089581E491E00E9470
:10028000310121E0892B09F420E0822F0895FC013F
:10029000848DDF01A80FB11DA35ABF4F2C91848D0F
:1002A00090E001968F739927848FA689B7892C9344
:1002B000A089B1898C91837080648C93938D848D97
:1002C000981306C00288F389E02D80818F7D80839A
:1002D0000895EF92FF920F931F93CF93DF93EC015A
:1002E00081E0888F9B8D8C8D981305C0E889F989F2
:1002F000808185FD26C0F62E0B8D10E00F5F1F4F0D
:100300000F731127E02E8C8DE8120CC00FB607FC7E
:10031000FACFE889F989808185FFF5CFCE010E9467
:100320004701F1CF8B8DFE01E80FF11DE35AFF4F1E
:10033000F0829FB7F8940B8FEA89FB8980818062F5
:100340000AC09FB7F894EE89FF896083E889F9892C
:1003500080818370806480839FBF81E090E0DF9123
:10036000CF911F910F91FF90EF900895CF93DF935E
:10037000EC01888D8823C9F0EA89FB89808185FD9D
:1003800005C0A889B9898C9186FD0FC00FB607FCFE
:10039000F5CF808185FFF2CFA889B9898C9185FF3F
:1003A000EDCFCE010E944701E7CFDF91CF910895B5
:1003B00080E090E0892B29F00E943D0181110C948E
:1003C00000000895833081F028F4813099F0823064
:1003D000A1F008958730A9F08830B9F08430D1F4C5
:1003E000809180008F7D03C0809180008F77809303
:1003F0008000089584B58F7702C084B58F7D84BD59
:1004000008958091B0008F7703C08091B0008F7DF8
:100410008093B00008951F93CF93DF93282F30E08F
:10042000F901E859FF4F8491F901E255FF4FD4914A
:10043000F901E656FF4FC491CC23C1F0162F81116C
:100440000E94E201EC2FF0E0EE0FFF1FE057FF4F9C
:10045000A591B4919FB7F894111104C08C91D095D7
:10046000D82302C0EC91DE2BDC939FBFDF91CF91AC
:100470001F910895CF93DF9390E0FC01E255FF4F69
:100480002491FC01E656FF4F8491882361F190E0AE
:10049000880F991FFC01E458FF4FC591D491FC01CE
:1004A000E057FF4FA591B491611109C09FB7F8942F
:1004B0008881209582238883EC912E230BC06230A3
:1004C00061F49FB7F8948881322F30958323888315
:1004D000EC912E2B2C939FBF06C08FB7F894E88128
:1004E0002E2B28838FBFDF91CF9108951F93CF9339
:1004F000DF93182FEB0161E00E943A02209711F47C
:1005000060E004C0CF3FD10539F461E0812FDF9175
:10051000CF911F910C940B02E12FF0E0E859FF4FAF
:10052000E491E330F9F048F4E130B9F0E230A1F5BC
:1005300084B5806284BDC8BD34C0E730E9F0E830DE
:1005400019F1E43049F58091800080628093800049
:10055000D0938B00C0938A0024C084B5806884BD8A
:10056000C7BD1FC080918000806880938000D093B9
:100570008900C093880015C08091B0008068809386
:10058000B000C093B3000DC08091B0008062809332
:10059000B000C093B40005C0C038D1050CF0B5CF91
:1005A000AFCFDF91CF911F9108953FB7F89480911D
:1005B0003D0190913E01A0913F01B091400126B5CF
:1005C000A89B05C02F3F19F00196A11DB11D3FBF8B
:1005D000BA2FA92F982F8827820F911DA11DB11D19
:1005E000BC01CD0142E0660F771F881F991F4A9515
:1005F000D1F708958F929F92AF92BF92CF92DF92E0
:10060000EF92FF926B017C010E94D5024B015C01CD
:10061000C114D104E104F104F1F00E94D502DC011F
:10062000CB0188199909AA09BB09883E9340A10505
:10063000B10570F321E0C21AD108E108F10888EE93
:10064000880E83E0981EA11CB11CC114D104E104E2
:10065000F10419F7DDCFFF90EF90DF90CF90BF90BE
:10066000AF909F908F9008950F931F93CF93DF9338
:100670008C01EB01181619063CF4BC0185E00E94C0
:10068000760260E070E009C060E070E085E00E9402
:10069000760266277727601B710B86E00E94760240
:1006A0001C161D063CF4BE018AE00E94760260E042
:1006B00070E009C060E070E08AE00E947602662780
:1006C00077276C1B7D0B8BE0DF91CF911F910F91F2
:1006D0000C9476020F931F93CF93DF93FC01A285B6
:1006E000B3859C918481892B8C93A681B7819C9141
:1006F0008481809589238C938BE090E00197F1F7BA
:10070000A681B7819C918481892B8C9383E290E0B0
:100710000197F1F7A681B7819C9184818095892307
:100720008C93A285B3859C918481809589238C9339
:10073000A085B1859C918581892309F058C0EF017E
:100740000E94D5022C853D85890120E030E00855C6
:10075000194E2F4F3F4FDC01CB01800F911FA21F7D
:10076000B31F8E879F87A88BB98BE885F985908109
:100770008D81892361F40E94D5020E851F85288909
:100780003989061717072807390778F730C00E94FC
:10079000D5022C853D85DC01CB01820F931FA11D65
:1007A000B11D8E879F87A88BB98BE885F9859081CD
:1007B0008D81892361F00E94D5020E851F852889CD
:1007C0003989061717072807390778F710C00E94DC
:1007D000D5022C853D85A901455051092E853F85BF
:1007E000FA01E21BF30BCF01860F971F02C080E0D6
:1007F00090E0DF91CF911F910F9108958130910585
:1008000041F08230910541F0892B99F48EED91E011
:1008100005C080EF91E002C082E092E00E946A038E
:10082000BC0180E090E029E330E040E050E00E942D
:10083000F208B901330F880B990B0E9457080895ED
:10084000CF92DF92EF92FF920F931F93CF93DF939C
:100850008C010E94FE036B017C01C0E0D0E020E02F
:1008600030E040E85FE3C701B6010E94500887FF0F
:100870000AC0C530D10549F0C8010E94FE036B01D2
:100880007C012196ECCF259731F4C12CD12C88EC3A
:10089000E82E82E4F82EC701B601DF91CF911F91B7
:1008A0000F91FF90EF90DF90CF900895009769F03F
:1008B000FC0101900020E9F73197AF01481B590B6B
:1008C000BC0181E491E00C94D20080E090E00895B6
:1008D000CF93DF93EC018091140290911502009761
:1008E00039F020911602309117022C173D07B8F409
:1008F000BE016F5F7F4F0E943B0A009791F090937B
:10090000150280931402D0931702C093160220910F
:10091000180230911902232B11F4FC01108281E09E
:1009200001C080E0DF91CF9108950E94010B1F92DA
:100930000F920FB60F9211242F933F934F935F9313
:100940006F937F938F939F93AF93BF93EF93FF9397
:1009500081E491E00E944701FF91EF91BF91AF9137
:100960009F918F917F916F915F914F913F912F91C7
:100970000F900FBE0F901F9018951F920F920FB6F9
:100980000F9211242F938F939F93EF93FF93E091F6
:100990005101F09152018081E0915701F09158018D
:1009A00082FD12C0908180915A018F5F8F732091D8
:1009B0005B01821751F0E0915A01F0E0EF5BFE4FCE
:1009C000958F80935A0101C08081FF91EF919F9193
:1009D0008F912F910F900FBE0F901F9018951F921F
:1009E0000F920FB60F9211242F933F938F939F93E3
:1009F000AF93BF938091390190913A01A0913B014F
:100A0000B0913C013091380123E0230F2D3720F4C1
:100A10000196A11DB11D05C026E8230F0296A11D58
:100A2000B11D209338018093390190933A01A0932E
:100A30003B01B0933C0180913D0190913E01A0911A
:100A40003F01B09140010196A11DB11D80933D0170
:100A500090933E01A0933F01B0934001BF91AF91AD
:100A60009F918F913F912F910F900FBE0F901F90EC
:100A700018951F920F920FB60F9211242F933F9348
:100A80004F935F936F937F938F939F93AF93BF9396
:100A9000EF93FF93E0E0F0E00995FF91EF91BF91B4
:100AA000AF919F918F917F916F915F914F913F9106
:100AB0002F910F900FBE0F901F9018951092440128
:100AC0001092430188EE93E0A0E0B0E080934501EE
:100AD00090934601A0934701B09348018AE091E0CA
:100AE000909342018093410185EC90E090934E01F8
:100AF00080934D0184EC90E09093500180934F01DE
:100B000080EC90E0909352018093510181EC90E051
:100B1000909354018093530182EC90E0909356019E
:100B20008093550186EC90E0909358018093570193
:100B300010925A0110925B0110925C0110925D01BB
:100B400010921502109214021092170210921602BF
:100B5000109219021092180280E090E00E9468043E
:100B60002091140230911502811113C02115310515
:100B700019F0C9010E94B2091092150210921402D4
:100B80001092190210921802109217021092160277
:100B900009C010921902109218026AE171E0C901AD
:100BA0000E940F0B49E069E082E092E00E948D0014
:100BB00048E068E080EF91E00E948D0047E067E048
:100BC0008EED91E00C948D00CF93DF93CDB7DEB71F
:100BD000A1970FB6F894DEBF0FBECDBF789484B551
:100BE000826084BD84B5816084BD85B5826085BD29
:100BF00085B5816085BD80916E00816080936E00B7
:100C000010928100809181008260809381008091A8
:100C10008100816080938100809180008160809359
:100C200080008091B10084608093B1008091B00019
:100C300081608093B00080917A00846080937A0014
:100C400080917A00826080937A0080917A0081603E
:100C500080937A0080917A00806880937A00109265
:100C6000C100E0915101F091520182E08083E09156
:100C70004D01F0914E011082E0914F01F091500131
:100C800080E1808310925901E0915501F091560165
:100C900086E08083E0915301F0915401808180616E
:100CA0008083E0915301F0915401808188608083BA
:100CB000E0915301F0915401808180688083E0913C
:100CC0005301F091540180818F7D808388EC90E006
:100CD0000E94680460E08EE00E943A0261E085E0D4
:100CE0000E943A0261E08AE00E943A0261E086E0F6
:100CF0000E943A0261E08BE00E943A0262E081E1E8
:100D00000E943A0209E710E02FEBE22E20E0F22EDB
:100D10003BEAC32E30E0D32EF8018491F701A49072
:100D2000F601B490BB20A9F081110E94E201EB2DE5
:100D3000F0E0EE0FFF1FEA57FF4FA591B4918C91A1
:100D40008A2139F06AE070E080E090E00E94FA02C7
:100D5000E3CF64E670E080E090E00E94FA0260E594
:100D600070E081E590E00E9434038AE0882E912CA7
:100D7000A12CB12C81E090E00E9420042DEC3CECF1
:100D80004CEE50E40E94500887FF16C060E070E00F
:100D90008AE00E9476026AE070E080E090E00E94C3
:100DA000FA0260E570E08AE00E9476026AE070E094
:100DB00080E090E00E94FA0280E090E00E9420042F
:100DC0002DEC3CEC4CEE50E40E94500887FF16C01E
:100DD00060E070E085E00E9476026AE070E080E00A
:100DE00090E00E94FA0261E570E085E00E947602E0
:100DF0006AE070E080E090E00E94FA0282E090E019
:100E00000E94200420E030E040E151E40E945008BC
:100E100087FF68C060E070E080E090E00E943403EB
:100E20006EEC7FEF8DEC9FEF0E94340364E670E080
:100E300080E090E00E94FA0280E090E00E942004AE
:100E400020E030E048EC51E40E94ED0818166CF404
:100E500081E090E00E94200420E030E048EC51E482
:100E60000E94ED0818160CF4F2C080E090E00E9499
:100E700020046B017C0181E090E00E9420049B0132
:100E8000AC01C701B6010E94ED0818160CF0DAC0DB
:100E900060EB7FEF81E590E00E94340362EC71E04B
:100EA00080E090E00E94FA0260E070E080E090E074
:100EB0000E94340368EC70E080E090E00E94FA0247
:100EC00060EB7FEF8FEA9FEF0E94340360E273E0F4
:100ED00080E090E00E94FA0260E570E081E590E039
:100EE0000E94340381E090E00E94200420E030E082
:100EF00040E751E40E94500887FFA1C082E090E0E3
:100F00000E94200420E030E048E452E40E94ED0812
:100F100018160CF4B3C093C081E090E00E94200446
:100F200020E030E040EF50E40E94500887FF16C0F8
:100F300060E070E08AE00E9476026AE070E080E0A3
:100F400090E00E94FA0260E570E08AE00E9476027A
:100F50006AE070E080E090E00E94FA02FFEFCF1AB2
:100F6000DF0AEF0AFF0A8BE4C816D104E104F1049A
:100F700041F119A2A70196018E010F5D1F4FCA0111
:100F8000B901A50194010E94F208605DF801629325
:100F90008F01211531054105510589F7CF010E94C7
:100FA000560488E191E00E94560482E090E00E949D
:100FB000200420E030E040E251E40E94500887FF26
:100FC000ABCF81E090E00E94200420E030E048ECCC
:100FD00051E40E94ED08181694F58BE191E00E940F
:100FE000560488E191E00E94560460E570E08FEAC3
:100FF0009FEF0E94340362EC71E080E090E00E9479
:10100000FA0260E070E080E090E00E94340368EC57
:1010100070E080E090E00E94FA0260EB7FEF8FEAE0
:101020009FEF0E94340360E273E080E090E00E9452
:10103000FA0260E570E081E590E00E9434030E94CE
:10104000D80198CE60E570E08FEA9FEF25CF60E58C
:1010500070E08FEA9FEF0E94340362EC71E080E061
:1010600090E00E94FA0260E070E080E090E00E9470
:10107000340368EC70E080E090E02CCF85E291E0F2
:101080000E94560488E191E00E945604C12CD12CA4
:1010900076016FCF80911402909115020C94B209E1
:1010A0000E94920808F481E00895E89409C097FB33
:1010B0003EF490958095709561957F4F8F4F9F4F2F
:1010C0009923A9F0F92F96E9BB279395F695879573
:1010D00077956795B795F111F8CFFAF4BB0F11F436
:1010E00060FF1BC06F5F7F4F8F4F9F4F16C08823DD
:1010F00011F096E911C0772321F09EE8872F762F13
:1011000005C0662371F096E8862F70E060E02AF053
:101110009A95660F771F881FDAF7880F969587953F
:1011200097F90895990F0008550FAA0BE0E8FEEF14
:1011300016161706E807F907C0F012161306E4079B
:10114000F50798F0621B730B840B950B39F40A2694
:1011500061F0232B242B252B21F408950A2609F472
:10116000A140A6958FEF811D811D08952F923F927A
:101170004F925F926F927F928F929F92AF92BF92A7
:10118000CF92DF92EF92FF920F931F93CF93DF9353
:10119000CDB7DEB7CA1BDB0B0FB6F894DEBF0FBEB0
:1011A000CDBF09942A88398848885F846E847D84FD
:1011B0008C849B84AA84B984C884DF80EE80FD80FF
:1011C0000C811B81AA81B981CE0FD11D0FB6F89475
:1011D000DEBF0FBECDBFED0108950E94920808F456
:1011E0008FEF0895A1E21A2EAA1BBB1BFD010DC0B3
:1011F000AA1FBB1FEE1FFF1FA217B307E407F507C7
:1012000020F0A21BB30BE40BF50B661F771F881FA2
:10121000991F1A9469F760957095809590959B0138
:10122000AC01BD01CF010895EE0FFF1F0590F491B1
:10123000E02D09940F931F93CF93DF938230910594
:1012400010F482E090E0E0911C02F0911D0220E099
:1012500030E0A0E0B0E0309719F140815181028187
:10126000138148175907C8F08417950769F4109738
:1012700031F012960C93129713961C9327C000938B
:101280001C0210931D0222C02115310519F04217CE
:10129000530718F49A01BD01EF01DF01F801DBCF1C
:1012A00021153105F9F0281B390B2430310580F464
:1012B0008A819B816115710521F0FB0193838283F3
:1012C00004C090931D0280931C02FE01329644C01C
:1012D000FE01E20FF31F819391932250310939836C
:1012E00028833AC020911A0230911B02232B41F42B
:1012F000209102013091030130931B0220931A02C6
:1013000020910001309101012115310541F42DB7E3
:101310003EB74091040150910501241B350BE0912B
:101320001A02F0911B02E217F307A0F42E1B3F0BE9
:101330002817390778F0AC014E5F5F4F2417350747
:1013400048F04E0F5F1F50931B0240931A02819387
:10135000919302C0E0E0F0E0CF01DF91CF911F91C7
:101360000F910895CF93DF93009709F481C0FC019A
:10137000329713821282A0911C02B0911D02109725
:1013800081F420813181820F931F20911A023091C4
:101390001B022817390751F5F0931B02E0931A023C
:1013A00067C0ED0120E030E0CE17DF0740F44A814E
:1013B0005B819E0141155105F1F0EA01F5CFD38320
:1013C000C28340815181840F951FC817D90759F4F2
:1013D00088819981840F951F0296918380838A81E9
:1013E0009B81938382832115310529F4F0931D029B
:1013F000E0931C023DC0E901FB83EA8349915991C6
:10140000C40FD51FEC17FD0761F480819181840F13
:10141000951F0296E90199838883828193819B833A
:101420008A83E0E0F0E012968D919C9113970097EB
:1014300019F0FD01DC01F7CF8D919C9111979D0171
:101440002E5F3F4F820F931F20911A0230911B0293
:101450002817390769F4309729F410921D02109269
:101460001C0202C013821282B0931B02A0931A02C4
:10147000DF91CF910895A0E0B0E0E1E4FAE00C94B0
:10148000BA08EC01009721F4CB010E941A09B4C0FC
:10149000FC01E60FF71F9C0122503109E217F30708
:1014A00008F4A8C0D9010D911C91119706171707D0
:1014B000B0F00530110508F49BC0C80104978617E9
:1014C000970708F495C002501109061B170B0193EA
:1014D00011936D937C93CF010E94B20989C05B0187
:1014E000A01AB10A4C01800E911EA0911C02B0916D
:1014F0001D02612C712CE12CF12C109709F446C0CF
:101500008D919C911197A815B905B1F56C0142E038
:10151000C40ED11CCA14DB0478F14C018A189B0854
:10152000640142E0C40ED11C1296BC90129713962F
:10153000AC91B5E0CB16D10440F0B282A383918286
:101540008082D9016D937C9309C00E5F1F4F800F7D
:10155000911FF90191838083EB2DFA2FE114F1049F
:1015600031F0D7011396FC93EE93129741C0F0939C
:101570001D02E0931C023CC06816790608F43C0189
:101580007D0112960D90BC91A02DB7CF80911A02CB
:1015900090911B0288169906E1F466167706C8F446
:1015A0008091000190910101009741F48DB79EB7A1
:1015B0004091040150910501841B950BE817F90730
:1015C000C8F4F0931B02E0931A02F901718360835F
:1015D0000FC0CB010E941A097C01009759F0A801A5
:1015E000BE010E94060BCE010E94B209C70104C0D1
:1015F000CE0102C080E090E0CDB7DEB7EEE00C9403
:10160000D60881E090E0F8940C94160BFB01DC0105
:1016100002C001900D9241505040D8F70895FB014F
:10162000DC0101900D920020E1F7089510E0C2E680
:10163000D0E004C0FE010E9414092196C336D107F0
:06164000C9F7F894FFCF8A
:1016460000001E028000000000006901D2000001B7
:10165600B60131010F0123010D0A007475726E2067
:101666006C656674007475726E2064657465637467
:0416760065640000A7
:00000001FF
